:020000040800F2
:100000004804002045010008DD030008D50300086E
:10001000D9030008B10100087D05000800000000B8
:10002000000000000000000000000000E1030008E4
:100030009503000800000000DF0300081504000815
:100040005F0100085F0100085F0100085F01000810
:100050005F0100085F0100085F0100085F01000800
:100060005F0100085F0100085F0100085F010008F0
:100070005F0100085F0100085F0100085F010008E0
:100080005F0100085F0100085F0100085F010008D0
:100090005F0100085F0100085F0100085F010008C0
:1000A0005F0100085F0100085F0100085F010008B0
:1000B000F10400085F0100085F0100085F0100080B
:1000C0005F0100085F0100085F0100085F01000890
:1000D0005F010008250500085F0100085F010008B6
:1000E000990300085F0100085F0100085F01000834
:1000F0005F0100085F0100085F0100085F01000860
:100100005F0100085F0100085F0100085F0100084F
:100110005F0100085F0100085F0100085F0100083F
:100120005F0100085F0100085F0100085F0100082F
:10013000DFF80CD000F02AF80048004783070008D9
:10014000480400200648804706480047FEE7FEE7CF
:10015000FEE7FEE7FEE7FEE7FEE7FEE7FEE7FEE777
:100160001D04000831010008D2B201E000F8012BA3
:10017000491EFBD270470022F6E710B513460A4627
:1001800004461946FFF7F0FF204610BD064C074D08
:1001900006E0E06840F0010394E807009847103457
:1001A000AC42F6D3FFF7C8FFDC080008FC080008E3
:1001B00000BFFEE770B54F2000F06EF8054605B9A8
:1001C00070BD002451E02B48005D284000284AD033
:1001D0002949095D41F0020000F05EF800F00F06C9
:1001E000042E1ED005DCA6B3012E07D0022E38D176
:1001F00005E0062E26D00C2E33D101E032E031E0AE
:1002000000201E49087032211D48FFF7B4FF1C4929
:10021000204600F095F81949087001201949087026
:1002200020E000201549087032211548FFF7A3FF90
:100230001349204600F084F8104908700220114943
:1002400008700FE00C49095D41F0050000F024F84A
:1002500008E0FFE70849095D41F0060000F01CF8DE
:1002600000E000BF00BF601CC4B2082CABDB00BFC5
:10027000A6E70000D4080008CC080008070000200A
:100280001000002008000020002101E04A1C91B26B
:100290008142FBDB7047000070B5054672B64FF433
:1002A0000051264800F0FCF94FF48061234800F02B
:1002B000F9F94FF48051214800F0F4F900224FF48D
:1002C00000611E4800F0F0F90A20FFF7DDFFFF2073
:1002D00000F094F8194800F04EFA00F47F4040EA2C
:1002E00005042146154800F04AFA4FF4005113481E
:1002F00000F0D6F94FF40061104800F0D3F94FF444
:1003000000610E4800F0CCF9FF2000F06BF84FF4CC
:1003100080510A4800F0C4F9084800F028FAC4B235
:100320004FF48051054800F0BDF94FF400510348E7
:1003300000F0B8F962B6204670BD0000001401401C
:100340002DE9F04104460D4600262F4600BF104916
:10035000095D41F00500FFF79FFF00F00100002854
:10036000F5D007E00A49085DFFF796FF38707F1C5B
:10037000701CC6B20649095D41F00500FFF78CFF0D
:1003800000F001000028EDD13046BDE8F08100000A
:10039000CC0800087047000010B54FF4006000F072
:1003A00073F9012812D1C00200F068F9042108484D
:1003B00000F0D5F908B9012000E0002004462246EB
:1003C0000421034800F070F9FFF7F4FE10BD0000AF
:1003D0000008014000BFFEE700BFFEE7704770471E
:1003E0007047000010B50446234603224821024806
:1003F00000F05FF910BD00000014014010B5044684
:10040000234603221021024800F053F910BD0000DA
:100410000014014010B500F0C3F810BD08B5304815
:10042000006840F001002E49086000BF2C480068B9
:1004300000F002000028F9D000BF2948406840F0D1
:100440008000274948600020009002E00098401C8E
:10045000009000985028F9D32148406840F090005F
:100460001F4948600020009002E00098401C009066
:1004700000985028F9D300BF1948406820F00300C5
:100480001749486008460068164908401449086042
:100490000846406814490840114948600846006809
:1004A000104908400E4908600846006820F4802082
:1004B0000860084640680D490840094948600846F8
:1004C000006808490840064908604FF41F0088602A
:1004D00000F0C8F900214FF0006000F055F908BDA8
:1004E00000100240FFFFF6FE0C00FFE8FFFF00F7E0
:1004F00010B50121880700F0BCF9012805D10121C0
:10050000800700F0B3F900F001F810BD044800685E
:1005100020B103480068401E014908607047000090
:100520000C00002010B51049104800F0B3F9D0B10C
:100530000E4800F0AAF904210D4800F08EF8404260
:100540000C49087001200C4908700421084800F08B
:1005500033F84FF480720421054800F06BF8042151
:10056000034800F042F810BD0403040000380140C5
:1005700000000240040000200600002000BFFEE74B
:1005800002E008C8121F08C1002AFAD1704770475C
:10059000002001E001C1121F002AFBD170470000BA
:1005A0000448006820B103480068401E0149086003
:1005B000704700000000002070B505460C4621463B
:1005C000284600F02BF808B900BFFEE704EB8400D2
:1005D000810005F10800405820F0010104EB84007F
:1005E000820005F10800815070BD70B505460C46CB
:1005F0002146284600F012F808B900BFFEE704EBD8
:100600008400810005F10800405840F0010104EB2E
:100610008400820005F10800815070BD024601206F
:10062000034B9A4202D1042900DD002070470000EC
:100630000004024070B506460C4615462146304679
:10064000FFF7ECFF08B900BFFEE7A9B204EB840096
:10065000820006F10C00815070BD70B505460C4655
:1006600021462846FFF7DAFF08B900BFFEE704EB92
:100670008400810005F10C00405870BD01490860FC
:100680007047000014040140014604480068084017
:1006900008B1012070470020FCE70000140401406D
:1006A00041617047016170470AB1016100E0416139
:1006B0007047F0B5044616460025002201F00F05EC
:1006C00001F0100707B1354300201EE001278740E5
:1006D0001F40C7B122684FEA800C0F2707FA0CF7BA
:1006E000BA43870005FA07F73A43282904D10127BE
:1006F00087401F40676105E0482903D101278740F3
:100700001F4027612260471CB8B20828DED30820AA
:1007100022E0012787401F40E7B16268A0F1080787
:100720004FEA870C0F2707FA0CF7BA43A0F1080726
:10073000BF0005FA07F73A43282904D1012787406B
:100740001F40676105E0482903D1012787401F400A
:1007500027616260471CB8B21028DAD3F0BD0246A8
:100760009068084008B1012070470020FCE701466E
:10077000886880B270470146C86880B27047C1601F
:100780007047002070470000034A0A400243034BB1
:100790001A60BFF34F8F704780FFFF1F08ED00E026
:1007A000002000212C4A126842F480322A4B1A6041
:1007B00000BF401C284A126802F4003119B94FF6F4
:1007C000FF729042F5D1244A126802F400320AB94D
:1007D00000BFFEE7204A52681F4B5A601A46526813
:1007E0005A601A46526842F480625A601A46526849
:1007F00022F440325A601A46526842F440325A603B
:100800001A465268154B1A40134B5A601A465268E2
:10081000134B1A43104B5A601A46126842F080720A
:100820001A6000BF0C4A126802F00072002AF9D068
:10083000094A526822F00302074B5A601A4652686E
:1008400042F002025A6000BF034A526802F00C02F2
:10085000082AF9D17047000000100240FFFFC3F7DB
:100860000000280810B5FFF79BFF10BDCA430261C6
:1008700070470246D06800EA01031069084010B1D1
:100880000BB1012070470020FCE701464868C0F327
:100890000800704770B5024600230024C1F3891098
:1008A000105801F01F060125B54000EA050302EBD0
:1008B00091500068C1F304460125B54000EA0504E3
:1008C00014B10BB1012070BD0020FCE700102030F6
:1008D000081828380102040810204080FC0800088D
:1008E0000000002010000000800500080C0900082E
:1008F00010000020380400009005000800000000EF
:0C090000000000000000000000000000EB
:0400000508000131BD
:00000001FF
